{
  "_format": "hh-sol-artifact-1",
  "contractName": "QuichswapLiquidityProviding",
  "sourceName": "contracts/QuichswapLiquidityProviding.sol",
  "abi": [
    {
      "inputs": [
        {
          "internalType": "contract ERC20",
          "name": "_token1",
          "type": "address"
        },
        {
          "internalType": "contract ERC20",
          "name": "_token2",
          "type": "address"
        },
        {
          "internalType": "contract LPToken",
          "name": "_lpToken",
          "type": "address"
        }
      ],
      "stateMutability": "nonpayable",
      "type": "constructor"
    },
    {
      "anonymous": false,
      "inputs": [
        {
          "indexed": true,
          "internalType": "address",
          "name": "previousOwner",
          "type": "address"
        },
        {
          "indexed": true,
          "internalType": "address",
          "name": "newOwner",
          "type": "address"
        }
      ],
      "name": "OwnershipTransferred",
      "type": "event"
    },
    {
      "inputs": [
        {
          "internalType": "uint256",
          "name": "_amountToken1",
          "type": "uint256"
        },
        {
          "internalType": "uint256",
          "name": "_amountToken2",
          "type": "uint256"
        }
      ],
      "name": "addLiquidity",
      "outputs": [],
      "stateMutability": "nonpayable",
      "type": "function"
    },
    {
      "inputs": [
        {
          "internalType": "uint256",
          "name": "_amountToken2",
          "type": "uint256"
        }
      ],
      "name": "getAmountOfToken1",
      "outputs": [
        {
          "internalType": "uint256",
          "name": "",
          "type": "uint256"
        }
      ],
      "stateMutability": "view",
      "type": "function"
    },
    {
      "inputs": [
        {
          "internalType": "uint256",
          "name": "_amountToken1",
          "type": "uint256"
        }
      ],
      "name": "getAmountOfToken2",
      "outputs": [
        {
          "internalType": "uint256",
          "name": "",
          "type": "uint256"
        }
      ],
      "stateMutability": "view",
      "type": "function"
    },
    {
      "inputs": [
        {
          "internalType": "uint256",
          "name": "_lpTokenAmount",
          "type": "uint256"
        }
      ],
      "name": "getLpTokenComposition",
      "outputs": [
        {
          "internalType": "uint256",
          "name": "amountToken1",
          "type": "uint256"
        },
        {
          "internalType": "uint256",
          "name": "amountToken2",
          "type": "uint256"
        }
      ],
      "stateMutability": "view",
      "type": "function"
    },
    {
      "inputs": [],
      "name": "getToken1Ratio",
      "outputs": [
        {
          "internalType": "uint256",
          "name": "",
          "type": "uint256"
        }
      ],
      "stateMutability": "view",
      "type": "function"
    },
    {
      "inputs": [],
      "name": "getToken2Ratio",
      "outputs": [
        {
          "internalType": "uint256",
          "name": "",
          "type": "uint256"
        }
      ],
      "stateMutability": "view",
      "type": "function"
    },
    {
      "inputs": [],
      "name": "owner",
      "outputs": [
        {
          "internalType": "address",
          "name": "",
          "type": "address"
        }
      ],
      "stateMutability": "view",
      "type": "function"
    },
    {
      "inputs": [
        {
          "internalType": "uint256",
          "name": "_amountLpToken",
          "type": "uint256"
        }
      ],
      "name": "removeLiquidity",
      "outputs": [],
      "stateMutability": "nonpayable",
      "type": "function"
    },
    {
      "inputs": [],
      "name": "renounceOwnership",
      "outputs": [],
      "stateMutability": "nonpayable",
      "type": "function"
    },
    {
      "inputs": [
        {
          "internalType": "uint256",
          "name": "_amountToken1",
          "type": "uint256"
        }
      ],
      "name": "swapToken1",
      "outputs": [],
      "stateMutability": "nonpayable",
      "type": "function"
    },
    {
      "inputs": [
        {
          "internalType": "uint256",
          "name": "_amountToken2",
          "type": "uint256"
        }
      ],
      "name": "swapToken2",
      "outputs": [],
      "stateMutability": "nonpayable",
      "type": "function"
    },
    {
      "inputs": [],
      "name": "totalStacked",
      "outputs": [
        {
          "internalType": "uint256",
          "name": "",
          "type": "uint256"
        }
      ],
      "stateMutability": "view",
      "type": "function"
    },
    {
      "inputs": [
        {
          "internalType": "address",
          "name": "newOwner",
          "type": "address"
        }
      ],
      "name": "transferOwnership",
      "outputs": [],
      "stateMutability": "nonpayable",
      "type": "function"
    }
  ],
  "bytecode": "0x608060405260006001553480156200001657600080fd5b5060405162001ed038038062001ed083398181016040528101906200003c919062000406565b6200005c620000506200013960201b60201c565b6200014160201b60201c565b82600260006101000a81548173ffffffffffffffffffffffffffffffffffffffff021916908373ffffffffffffffffffffffffffffffffffffffff16021790555081600360006101000a81548173ffffffffffffffffffffffffffffffffffffffff021916908373ffffffffffffffffffffffffffffffffffffffff16021790555080600460006101000a81548173ffffffffffffffffffffffffffffffffffffffff021916908373ffffffffffffffffffffffffffffffffffffffff16021790555062000130336200020560201b60201c565b5050506200057d565b600033905090565b60008060009054906101000a900473ffffffffffffffffffffffffffffffffffffffff169050816000806101000a81548173ffffffffffffffffffffffffffffffffffffffff021916908373ffffffffffffffffffffffffffffffffffffffff1602179055508173ffffffffffffffffffffffffffffffffffffffff168173ffffffffffffffffffffffffffffffffffffffff167f8be0079c531659141344cd1fd0a4f28419497f9722a3daafe3b4186f6b6457e060405160405180910390a35050565b620002156200013960201b60201c565b73ffffffffffffffffffffffffffffffffffffffff166200023b6200031a60201b60201c565b73ffffffffffffffffffffffffffffffffffffffff161462000294576040517f08c379a00000000000000000000000000000000000000000000000000000000081526004016200028b90620004c3565b60405180910390fd5b600073ffffffffffffffffffffffffffffffffffffffff168173ffffffffffffffffffffffffffffffffffffffff160362000306576040517f08c379a0000000000000000000000000000000000000000000000000000000008152600401620002fd906200055b565b60405180910390fd5b62000317816200014160201b60201c565b50565b60008060009054906101000a900473ffffffffffffffffffffffffffffffffffffffff16905090565b600080fd5b600073ffffffffffffffffffffffffffffffffffffffff82169050919050565b6000620003758262000348565b9050919050565b6000620003898262000368565b9050919050565b6200039b816200037c565b8114620003a757600080fd5b50565b600081519050620003bb8162000390565b92915050565b6000620003ce8262000368565b9050919050565b620003e081620003c1565b8114620003ec57600080fd5b50565b6000815190506200040081620003d5565b92915050565b60008060006060848603121562000422576200042162000343565b5b60006200043286828701620003aa565b93505060206200044586828701620003aa565b92505060406200045886828701620003ef565b9150509250925092565b600082825260208201905092915050565b7f4f776e61626c653a2063616c6c6572206973206e6f7420746865206f776e6572600082015250565b6000620004ab60208362000462565b9150620004b88262000473565b602082019050919050565b60006020820190508181036000830152620004de816200049c565b9050919050565b7f4f776e61626c653a206e6577206f776e657220697320746865207a65726f206160008201527f6464726573730000000000000000000000000000000000000000000000000000602082015250565b60006200054360268362000462565b91506200055082620004e5565b604082019050919050565b60006020820190508181036000830152620005768162000534565b9050919050565b611943806200058d6000396000f3fe608060405234801561001057600080fd5b50600436106100cf5760003560e01c80639c8f9f231161008c578063be7429f011610066578063be7429f0146101ff578063e8906cce1461021d578063f2fde38b1461023b578063f4cb34d414610257576100cf565b80639c8f9f23146101975780639cd441da146101b3578063a57283e0146101cf576100cf565b806329eae70d146100d4578063389f40c6146100f257806355b9be8f14610122578063715018a6146101535780638da5cb5b1461015d578063980d69d31461017b575b600080fd5b6100dc610273565b6040516100e991906113b5565b60405180910390f35b61010c60048036038101906101079190611401565b610279565b60405161011991906113b5565b60405180910390f35b61013c60048036038101906101379190611401565b6102a7565b60405161014a92919061142e565b60405180910390f35b61015b6104e7565b005b61016561056f565b6040516101729190611498565b60405180910390f35b61019560048036038101906101909190611401565b610598565b005b6101b160048036038101906101ac9190611401565b6107a2565b005b6101cd60048036038101906101c891906114b3565b610999565b005b6101e960048036038101906101e49190611401565b610c8b565b6040516101f691906113b5565b60405180910390f35b610207610cb9565b60405161021491906113b5565b60405180910390f35b610225610e44565b60405161023291906113b5565b60405180910390f35b6102556004803603810190610250919061151f565b610fcf565b005b610271600480360381019061026c9190611401565b6110c6565b005b60015481565b6000610283610e44565b61028b610cb9565b83610296919061157b565b6102a09190611604565b9050919050565b6000806000600460009054906101000a900473ffffffffffffffffffffffffffffffffffffffff1673ffffffffffffffffffffffffffffffffffffffff166318160ddd6040518163ffffffff1660e01b8152600401602060405180830381865afa158015610319573d6000803e3d6000fd5b505050506040513d601f19601f8201168201806040525081019061033d919061164a565b670de0b6b3a764000085610351919061157b565b61035b9190611604565b90506000600260009054906101000a900473ffffffffffffffffffffffffffffffffffffffff1673ffffffffffffffffffffffffffffffffffffffff166370a08231306040518263ffffffff1660e01b81526004016103ba9190611498565b602060405180830381865afa1580156103d7573d6000803e3d6000fd5b505050506040513d601f19601f820116820180604052508101906103fb919061164a565b90506000600360009054906101000a900473ffffffffffffffffffffffffffffffffffffffff1673ffffffffffffffffffffffffffffffffffffffff166370a08231306040518263ffffffff1660e01b815260040161045a9190611498565b602060405180830381865afa158015610477573d6000803e3d6000fd5b505050506040513d601f19601f8201168201806040525081019061049b919061164a565b9050670de0b6b3a764000082846104b2919061157b565b6104bc9190611604565b9450670de0b6b3a764000081846104d3919061157b565b6104dd9190611604565b9350505050915091565b6104ef6112d0565b73ffffffffffffffffffffffffffffffffffffffff1661050d61056f565b73ffffffffffffffffffffffffffffffffffffffff1614610563576040517f08c379a000000000000000000000000000000000000000000000000000000000815260040161055a906116d4565b60405180910390fd5b61056d60006112d8565b565b60008060009054906101000a900473ffffffffffffffffffffffffffffffffffffffff16905090565b600081116105a557600080fd5b60006105b082610279565b905080600260009054906101000a900473ffffffffffffffffffffffffffffffffffffffff1673ffffffffffffffffffffffffffffffffffffffff166370a08231306040518263ffffffff1660e01b815260040161060e9190611498565b602060405180830381865afa15801561062b573d6000803e3d6000fd5b505050506040513d601f19601f8201168201806040525081019061064f919061164a565b101561065a57600080fd5b600360009054906101000a900473ffffffffffffffffffffffffffffffffffffffff1673ffffffffffffffffffffffffffffffffffffffff166323b872dd3330856040518463ffffffff1660e01b81526004016106b9939291906116f4565b6020604051808303816000875af11580156106d8573d6000803e3d6000fd5b505050506040513d601f19601f820116820180604052508101906106fc9190611763565b50600260009054906101000a900473ffffffffffffffffffffffffffffffffffffffff1673ffffffffffffffffffffffffffffffffffffffff1663a9059cbb33836040518363ffffffff1660e01b815260040161075a929190611790565b6020604051808303816000875af1158015610779573d6000803e3d6000fd5b505050506040513d601f19601f8201168201806040525081019061079d9190611763565b505050565b600081116107af57600080fd5b6000806107bb836102a7565b8092508193505050600260009054906101000a900473ffffffffffffffffffffffffffffffffffffffff1673ffffffffffffffffffffffffffffffffffffffff1663a9059cbb33846040518363ffffffff1660e01b8152600401610820929190611790565b6020604051808303816000875af115801561083f573d6000803e3d6000fd5b505050506040513d601f19601f820116820180604052508101906108639190611763565b50600360009054906101000a900473ffffffffffffffffffffffffffffffffffffffff1673ffffffffffffffffffffffffffffffffffffffff1663a9059cbb33836040518363ffffffff1660e01b81526004016108c1929190611790565b6020604051808303816000875af11580156108e0573d6000803e3d6000fd5b505050506040513d601f19601f820116820180604052508101906109049190611763565b50600460009054906101000a900473ffffffffffffffffffffffffffffffffffffffff1673ffffffffffffffffffffffffffffffffffffffff16639dc29fac33856040518363ffffffff1660e01b8152600401610962929190611790565b600060405180830381600087803b15801561097c57600080fd5b505af1158015610990573d6000803e3d6000fd5b50505050505050565b60006109a483610c8b565b90506000670de0b6b3a764000080836109bd9190611604565b6109c7919061157b565b90506000670de0b6b3a7640000826109df91906117b9565b905080841115610a24576040517f08c379a0000000000000000000000000000000000000000000000000000000008152600401610a1b9061185b565b60405180910390fd5b81841015610a67576040517f08c379a0000000000000000000000000000000000000000000000000000000008152600401610a5e9061185b565b60405180910390fd5b600260009054906101000a900473ffffffffffffffffffffffffffffffffffffffff1673ffffffffffffffffffffffffffffffffffffffff166323b872dd3330886040518463ffffffff1660e01b8152600401610ac6939291906116f4565b6020604051808303816000875af1158015610ae5573d6000803e3d6000fd5b505050506040513d601f19601f82011682018060405250810190610b099190611763565b50600360009054906101000a900473ffffffffffffffffffffffffffffffffffffffff1673ffffffffffffffffffffffffffffffffffffffff166323b872dd3330876040518463ffffffff1660e01b8152600401610b69939291906116f4565b6020604051808303816000875af1158015610b88573d6000803e3d6000fd5b505050506040513d601f19601f82011682018060405250810190610bac9190611763565b506000670de0b6b3a7640000610bc0610e44565b86610bcb919061157b565b610bd3610cb9565b88610bde919061157b565b610be891906117b9565b610bf29190611604565b9050600460009054906101000a900473ffffffffffffffffffffffffffffffffffffffff1673ffffffffffffffffffffffffffffffffffffffff166340c10f1933836040518363ffffffff1660e01b8152600401610c51929190611790565b600060405180830381600087803b158015610c6b57600080fd5b505af1158015610c7f573d6000803e3d6000fd5b50505050505050505050565b6000610c95610cb9565b610c9d610e44565b83610ca8919061157b565b610cb29190611604565b9050919050565b600080600260009054906101000a900473ffffffffffffffffffffffffffffffffffffffff1673ffffffffffffffffffffffffffffffffffffffff166370a08231306040518263ffffffff1660e01b8152600401610d179190611498565b602060405180830381865afa158015610d34573d6000803e3d6000fd5b505050506040513d601f19601f82011682018060405250810190610d58919061164a565b90506000600360009054906101000a900473ffffffffffffffffffffffffffffffffffffffff1673ffffffffffffffffffffffffffffffffffffffff166370a08231306040518263ffffffff1660e01b8152600401610db79190611498565b602060405180830381865afa158015610dd4573d6000803e3d6000fd5b505050506040513d601f19601f82011682018060405250810190610df8919061164a565b9050600082118015610e0a5750600081115b610e1357600080fd5b8082610e1f91906117b9565b670de0b6b3a764000083610e33919061157b565b610e3d9190611604565b9250505090565b600080600260009054906101000a900473ffffffffffffffffffffffffffffffffffffffff1673ffffffffffffffffffffffffffffffffffffffff166370a08231306040518263ffffffff1660e01b8152600401610ea29190611498565b602060405180830381865afa158015610ebf573d6000803e3d6000fd5b505050506040513d601f19601f82011682018060405250810190610ee3919061164a565b90506000600360009054906101000a900473ffffffffffffffffffffffffffffffffffffffff1673ffffffffffffffffffffffffffffffffffffffff166370a08231306040518263ffffffff1660e01b8152600401610f429190611498565b602060405180830381865afa158015610f5f573d6000803e3d6000fd5b505050506040513d601f19601f82011682018060405250810190610f83919061164a565b9050600082118015610f955750600081115b610f9e57600080fd5b8082610faa91906117b9565b670de0b6b3a764000082610fbe919061157b565b610fc89190611604565b9250505090565b610fd76112d0565b73ffffffffffffffffffffffffffffffffffffffff16610ff561056f565b73ffffffffffffffffffffffffffffffffffffffff161461104b576040517f08c379a0000000000000000000000000000000000000000000000000000000008152600401611042906116d4565b60405180910390fd5b600073ffffffffffffffffffffffffffffffffffffffff168173ffffffffffffffffffffffffffffffffffffffff16036110ba576040517f08c379a00000000000000000000000000000000000000000000000000000000081526004016110b1906118ed565b60405180910390fd5b6110c3816112d8565b50565b600081116110d357600080fd5b60006110de82610c8b565b905080600360009054906101000a900473ffffffffffffffffffffffffffffffffffffffff1673ffffffffffffffffffffffffffffffffffffffff166370a08231306040518263ffffffff1660e01b815260040161113c9190611498565b602060405180830381865afa158015611159573d6000803e3d6000fd5b505050506040513d601f19601f8201168201806040525081019061117d919061164a565b101561118857600080fd5b600260009054906101000a900473ffffffffffffffffffffffffffffffffffffffff1673ffffffffffffffffffffffffffffffffffffffff166323b872dd3330856040518463ffffffff1660e01b81526004016111e7939291906116f4565b6020604051808303816000875af1158015611206573d6000803e3d6000fd5b505050506040513d601f19601f8201168201806040525081019061122a9190611763565b50600360009054906101000a900473ffffffffffffffffffffffffffffffffffffffff1673ffffffffffffffffffffffffffffffffffffffff1663a9059cbb33836040518363ffffffff1660e01b8152600401611288929190611790565b6020604051808303816000875af11580156112a7573d6000803e3d6000fd5b505050506040513d601f19601f820116820180604052508101906112cb9190611763565b505050565b600033905090565b60008060009054906101000a900473ffffffffffffffffffffffffffffffffffffffff169050816000806101000a81548173ffffffffffffffffffffffffffffffffffffffff021916908373ffffffffffffffffffffffffffffffffffffffff1602179055508173ffffffffffffffffffffffffffffffffffffffff168173ffffffffffffffffffffffffffffffffffffffff167f8be0079c531659141344cd1fd0a4f28419497f9722a3daafe3b4186f6b6457e060405160405180910390a35050565b6000819050919050565b6113af8161139c565b82525050565b60006020820190506113ca60008301846113a6565b92915050565b600080fd5b6113de8161139c565b81146113e957600080fd5b50565b6000813590506113fb816113d5565b92915050565b600060208284031215611417576114166113d0565b5b6000611425848285016113ec565b91505092915050565b600060408201905061144360008301856113a6565b61145060208301846113a6565b9392505050565b600073ffffffffffffffffffffffffffffffffffffffff82169050919050565b600061148282611457565b9050919050565b61149281611477565b82525050565b60006020820190506114ad6000830184611489565b92915050565b600080604083850312156114ca576114c96113d0565b5b60006114d8858286016113ec565b92505060206114e9858286016113ec565b9150509250929050565b6114fc81611477565b811461150757600080fd5b50565b600081359050611519816114f3565b92915050565b600060208284031215611535576115346113d0565b5b60006115438482850161150a565b91505092915050565b7f4e487b7100000000000000000000000000000000000000000000000000000000600052601160045260246000fd5b60006115868261139c565b91506115918361139c565b9250817fffffffffffffffffffffffffffffffffffffffffffffffffffffffffffffffff04831182151516156115ca576115c961154c565b5b828202905092915050565b7f4e487b7100000000000000000000000000000000000000000000000000000000600052601260045260246000fd5b600061160f8261139c565b915061161a8361139c565b92508261162a576116296115d5565b5b828204905092915050565b600081519050611644816113d5565b92915050565b6000602082840312156116605761165f6113d0565b5b600061166e84828501611635565b91505092915050565b600082825260208201905092915050565b7f4f776e61626c653a2063616c6c6572206973206e6f7420746865206f776e6572600082015250565b60006116be602083611677565b91506116c982611688565b602082019050919050565b600060208201905081810360008301526116ed816116b1565b9050919050565b60006060820190506117096000830186611489565b6117166020830185611489565b61172360408301846113a6565b949350505050565b60008115159050919050565b6117408161172b565b811461174b57600080fd5b50565b60008151905061175d81611737565b92915050565b600060208284031215611779576117786113d0565b5b60006117878482850161174e565b91505092915050565b60006040820190506117a56000830185611489565b6117b260208301846113a6565b9392505050565b60006117c48261139c565b91506117cf8361139c565b9250827fffffffffffffffffffffffffffffffffffffffffffffffffffffffffffffffff038211156118045761180361154c565b5b828201905092915050565b7f57726f6e6720726174696f000000000000000000000000000000000000000000600082015250565b6000611845600b83611677565b91506118508261180f565b602082019050919050565b6000602082019050818103600083015261187481611838565b9050919050565b7f4f776e61626c653a206e6577206f776e657220697320746865207a65726f206160008201527f6464726573730000000000000000000000000000000000000000000000000000602082015250565b60006118d7602683611677565b91506118e28261187b565b604082019050919050565b60006020820190508181036000830152611906816118ca565b905091905056fea2646970667358221220684dfc72d5bd80e4fe72b85dd5168ffd6f6683486a11f91b73b24c41d9ef147864736f6c634300080d0033",
  "linkReferences": {},
  "deployedLinkReferences": {}
}