{
  "_format": "hh-sol-artifact-1",
  "contractName": "QuichswapLiquidityProviding",
  "sourceName": "contracts/QuichswapLiquidityProviding.sol",
  "abi": [
    {
      "inputs": [
        {
          "internalType": "contract ERC20",
          "name": "_token1",
          "type": "address"
        },
        {
          "internalType": "contract ERC20",
          "name": "_token2",
          "type": "address"
        },
        {
          "internalType": "contract LPToken",
          "name": "_lpToken",
          "type": "address"
        }
      ],
      "stateMutability": "nonpayable",
      "type": "constructor"
    },
    {
      "anonymous": false,
      "inputs": [
        {
          "indexed": true,
          "internalType": "address",
          "name": "previousOwner",
          "type": "address"
        },
        {
          "indexed": true,
          "internalType": "address",
          "name": "newOwner",
          "type": "address"
        }
      ],
      "name": "OwnershipTransferred",
      "type": "event"
    },
    {
      "inputs": [
        {
          "internalType": "uint256",
          "name": "_amountToken1",
          "type": "uint256"
        },
        {
          "internalType": "uint256",
          "name": "_amountToken2",
          "type": "uint256"
        }
      ],
      "name": "addLiquidity",
      "outputs": [],
      "stateMutability": "nonpayable",
      "type": "function"
    },
    {
      "inputs": [
        {
          "internalType": "uint256",
          "name": "_amountToken2",
          "type": "uint256"
        }
      ],
      "name": "getAmountOfToken1",
      "outputs": [
        {
          "internalType": "uint256",
          "name": "",
          "type": "uint256"
        }
      ],
      "stateMutability": "view",
      "type": "function"
    },
    {
      "inputs": [
        {
          "internalType": "uint256",
          "name": "_amountToken1",
          "type": "uint256"
        }
      ],
      "name": "getAmountOfToken2",
      "outputs": [
        {
          "internalType": "uint256",
          "name": "",
          "type": "uint256"
        }
      ],
      "stateMutability": "view",
      "type": "function"
    },
    {
      "inputs": [
        {
          "internalType": "uint256",
          "name": "_lpTokenAmount",
          "type": "uint256"
        }
      ],
      "name": "getLpTokenComposition",
      "outputs": [
        {
          "internalType": "uint256",
          "name": "amountToken1",
          "type": "uint256"
        },
        {
          "internalType": "uint256",
          "name": "amountToken2",
          "type": "uint256"
        }
      ],
      "stateMutability": "view",
      "type": "function"
    },
    {
      "inputs": [],
      "name": "getToken1Ratio",
      "outputs": [
        {
          "internalType": "uint256",
          "name": "",
          "type": "uint256"
        }
      ],
      "stateMutability": "view",
      "type": "function"
    },
    {
      "inputs": [],
      "name": "getToken2Ratio",
      "outputs": [
        {
          "internalType": "uint256",
          "name": "",
          "type": "uint256"
        }
      ],
      "stateMutability": "view",
      "type": "function"
    },
    {
      "inputs": [],
      "name": "owner",
      "outputs": [
        {
          "internalType": "address",
          "name": "",
          "type": "address"
        }
      ],
      "stateMutability": "view",
      "type": "function"
    },
    {
      "inputs": [
        {
          "internalType": "uint256",
          "name": "_amountLpToken",
          "type": "uint256"
        }
      ],
      "name": "removeLiquidity",
      "outputs": [],
      "stateMutability": "nonpayable",
      "type": "function"
    },
    {
      "inputs": [],
      "name": "renounceOwnership",
      "outputs": [],
      "stateMutability": "nonpayable",
      "type": "function"
    },
    {
      "inputs": [],
      "name": "totalStacked",
      "outputs": [
        {
          "internalType": "uint256",
          "name": "",
          "type": "uint256"
        }
      ],
      "stateMutability": "view",
      "type": "function"
    },
    {
      "inputs": [
        {
          "internalType": "address",
          "name": "newOwner",
          "type": "address"
        }
      ],
      "name": "transferOwnership",
      "outputs": [],
      "stateMutability": "nonpayable",
      "type": "function"
    }
  ],
  "bytecode": "0x608060405260006001553480156200001657600080fd5b50604051620019d7380380620019d783398181016040528101906200003c919062000406565b6200005c620000506200013960201b60201c565b6200014160201b60201c565b82600260006101000a81548173ffffffffffffffffffffffffffffffffffffffff021916908373ffffffffffffffffffffffffffffffffffffffff16021790555081600360006101000a81548173ffffffffffffffffffffffffffffffffffffffff021916908373ffffffffffffffffffffffffffffffffffffffff16021790555080600460006101000a81548173ffffffffffffffffffffffffffffffffffffffff021916908373ffffffffffffffffffffffffffffffffffffffff16021790555062000130336200020560201b60201c565b5050506200057d565b600033905090565b60008060009054906101000a900473ffffffffffffffffffffffffffffffffffffffff169050816000806101000a81548173ffffffffffffffffffffffffffffffffffffffff021916908373ffffffffffffffffffffffffffffffffffffffff1602179055508173ffffffffffffffffffffffffffffffffffffffff168173ffffffffffffffffffffffffffffffffffffffff167f8be0079c531659141344cd1fd0a4f28419497f9722a3daafe3b4186f6b6457e060405160405180910390a35050565b620002156200013960201b60201c565b73ffffffffffffffffffffffffffffffffffffffff166200023b6200031a60201b60201c565b73ffffffffffffffffffffffffffffffffffffffff161462000294576040517f08c379a00000000000000000000000000000000000000000000000000000000081526004016200028b90620004c3565b60405180910390fd5b600073ffffffffffffffffffffffffffffffffffffffff168173ffffffffffffffffffffffffffffffffffffffff160362000306576040517f08c379a0000000000000000000000000000000000000000000000000000000008152600401620002fd906200055b565b60405180910390fd5b62000317816200014160201b60201c565b50565b60008060009054906101000a900473ffffffffffffffffffffffffffffffffffffffff16905090565b600080fd5b600073ffffffffffffffffffffffffffffffffffffffff82169050919050565b6000620003758262000348565b9050919050565b6000620003898262000368565b9050919050565b6200039b816200037c565b8114620003a757600080fd5b50565b600081519050620003bb8162000390565b92915050565b6000620003ce8262000368565b9050919050565b620003e081620003c1565b8114620003ec57600080fd5b50565b6000815190506200040081620003d5565b92915050565b60008060006060848603121562000422576200042162000343565b5b60006200043286828701620003aa565b93505060206200044586828701620003aa565b92505060406200045886828701620003ef565b9150509250925092565b600082825260208201905092915050565b7f4f776e61626c653a2063616c6c6572206973206e6f7420746865206f776e6572600082015250565b6000620004ab60208362000462565b9150620004b88262000473565b602082019050919050565b60006020820190508181036000830152620004de816200049c565b9050919050565b7f4f776e61626c653a206e6577206f776e657220697320746865207a65726f206160008201527f6464726573730000000000000000000000000000000000000000000000000000602082015250565b60006200054360268362000462565b91506200055082620004e5565b604082019050919050565b60006020820190508181036000830152620005768162000534565b9050919050565b61144a806200058d6000396000f3fe608060405234801561001057600080fd5b50600436106100a95760003560e01c80639c8f9f23116100715780639c8f9f23146101555780639cd441da14610171578063a57283e01461018d578063be7429f0146101bd578063e8906cce146101db578063f2fde38b146101f9576100a9565b806329eae70d146100ae578063389f40c6146100cc57806355b9be8f146100fc578063715018a61461012d5780638da5cb5b14610137575b600080fd5b6100b6610215565b6040516100c39190610ebc565b60405180910390f35b6100e660048036038101906100e19190610f08565b61021b565b6040516100f39190610ebc565b60405180910390f35b61011660048036038101906101119190610f08565b610249565b604051610124929190610f35565b60405180910390f35b610135610489565b005b61013f610511565b60405161014c9190610f9f565b60405180910390f35b61016f600480360381019061016a9190610f08565b61053a565b005b61018b60048036038101906101869190610fba565b610731565b005b6101a760048036038101906101a29190610f08565b61099c565b6040516101b49190610ebc565b60405180910390f35b6101c56109ca565b6040516101d29190610ebc565b60405180910390f35b6101e3610b55565b6040516101f09190610ebc565b60405180910390f35b610213600480360381019061020e9190611026565b610ce0565b005b60015481565b6000610225610b55565b61022d6109ca565b836102389190611082565b610242919061110b565b9050919050565b6000806000600460009054906101000a900473ffffffffffffffffffffffffffffffffffffffff1673ffffffffffffffffffffffffffffffffffffffff166318160ddd6040518163ffffffff1660e01b8152600401602060405180830381865afa1580156102bb573d6000803e3d6000fd5b505050506040513d601f19601f820116820180604052508101906102df9190611151565b670de0b6b3a7640000856102f39190611082565b6102fd919061110b565b90506000600260009054906101000a900473ffffffffffffffffffffffffffffffffffffffff1673ffffffffffffffffffffffffffffffffffffffff166370a08231306040518263ffffffff1660e01b815260040161035c9190610f9f565b602060405180830381865afa158015610379573d6000803e3d6000fd5b505050506040513d601f19601f8201168201806040525081019061039d9190611151565b90506000600360009054906101000a900473ffffffffffffffffffffffffffffffffffffffff1673ffffffffffffffffffffffffffffffffffffffff166370a08231306040518263ffffffff1660e01b81526004016103fc9190610f9f565b602060405180830381865afa158015610419573d6000803e3d6000fd5b505050506040513d601f19601f8201168201806040525081019061043d9190611151565b9050670de0b6b3a764000082846104549190611082565b61045e919061110b565b9450670de0b6b3a764000081846104759190611082565b61047f919061110b565b9350505050915091565b610491610dd7565b73ffffffffffffffffffffffffffffffffffffffff166104af610511565b73ffffffffffffffffffffffffffffffffffffffff1614610505576040517f08c379a00000000000000000000000000000000000000000000000000000000081526004016104fc906111db565b60405180910390fd5b61050f6000610ddf565b565b60008060009054906101000a900473ffffffffffffffffffffffffffffffffffffffff16905090565b6000811161054757600080fd5b60008061055383610249565b8092508193505050600260009054906101000a900473ffffffffffffffffffffffffffffffffffffffff1673ffffffffffffffffffffffffffffffffffffffff1663a9059cbb33846040518363ffffffff1660e01b81526004016105b89291906111fb565b6020604051808303816000875af11580156105d7573d6000803e3d6000fd5b505050506040513d601f19601f820116820180604052508101906105fb919061125c565b50600360009054906101000a900473ffffffffffffffffffffffffffffffffffffffff1673ffffffffffffffffffffffffffffffffffffffff1663a9059cbb33836040518363ffffffff1660e01b81526004016106599291906111fb565b6020604051808303816000875af1158015610678573d6000803e3d6000fd5b505050506040513d601f19601f8201168201806040525081019061069c919061125c565b50600460009054906101000a900473ffffffffffffffffffffffffffffffffffffffff1673ffffffffffffffffffffffffffffffffffffffff16639dc29fac33856040518363ffffffff1660e01b81526004016106fa9291906111fb565b600060405180830381600087803b15801561071457600080fd5b505af1158015610728573d6000803e3d6000fd5b50505050505050565b61073a8261099c565b811461077b576040517f08c379a0000000000000000000000000000000000000000000000000000000008152600401610772906112d5565b60405180910390fd5b600260009054906101000a900473ffffffffffffffffffffffffffffffffffffffff1673ffffffffffffffffffffffffffffffffffffffff166323b872dd3330856040518463ffffffff1660e01b81526004016107da939291906112f5565b6020604051808303816000875af11580156107f9573d6000803e3d6000fd5b505050506040513d601f19601f8201168201806040525081019061081d919061125c565b50600360009054906101000a900473ffffffffffffffffffffffffffffffffffffffff1673ffffffffffffffffffffffffffffffffffffffff166323b872dd3330846040518463ffffffff1660e01b815260040161087d939291906112f5565b6020604051808303816000875af115801561089c573d6000803e3d6000fd5b505050506040513d601f19601f820116820180604052508101906108c0919061125c565b506000670de0b6b3a76400006108d4610b55565b836108df9190611082565b6108e76109ca565b856108f29190611082565b6108fc919061132c565b610906919061110b565b9050600460009054906101000a900473ffffffffffffffffffffffffffffffffffffffff1673ffffffffffffffffffffffffffffffffffffffff166340c10f1933836040518363ffffffff1660e01b81526004016109659291906111fb565b600060405180830381600087803b15801561097f57600080fd5b505af1158015610993573d6000803e3d6000fd5b50505050505050565b60006109a66109ca565b6109ae610b55565b836109b99190611082565b6109c3919061110b565b9050919050565b600080600260009054906101000a900473ffffffffffffffffffffffffffffffffffffffff1673ffffffffffffffffffffffffffffffffffffffff166370a08231306040518263ffffffff1660e01b8152600401610a289190610f9f565b602060405180830381865afa158015610a45573d6000803e3d6000fd5b505050506040513d601f19601f82011682018060405250810190610a699190611151565b90506000600360009054906101000a900473ffffffffffffffffffffffffffffffffffffffff1673ffffffffffffffffffffffffffffffffffffffff166370a08231306040518263ffffffff1660e01b8152600401610ac89190610f9f565b602060405180830381865afa158015610ae5573d6000803e3d6000fd5b505050506040513d601f19601f82011682018060405250810190610b099190611151565b9050600082118015610b1b5750600081115b610b2457600080fd5b8082610b30919061132c565b670de0b6b3a764000083610b449190611082565b610b4e919061110b565b9250505090565b600080600260009054906101000a900473ffffffffffffffffffffffffffffffffffffffff1673ffffffffffffffffffffffffffffffffffffffff166370a08231306040518263ffffffff1660e01b8152600401610bb39190610f9f565b602060405180830381865afa158015610bd0573d6000803e3d6000fd5b505050506040513d601f19601f82011682018060405250810190610bf49190611151565b90506000600360009054906101000a900473ffffffffffffffffffffffffffffffffffffffff1673ffffffffffffffffffffffffffffffffffffffff166370a08231306040518263ffffffff1660e01b8152600401610c539190610f9f565b602060405180830381865afa158015610c70573d6000803e3d6000fd5b505050506040513d601f19601f82011682018060405250810190610c949190611151565b9050600082118015610ca65750600081115b610caf57600080fd5b8082610cbb919061132c565b670de0b6b3a764000082610ccf9190611082565b610cd9919061110b565b9250505090565b610ce8610dd7565b73ffffffffffffffffffffffffffffffffffffffff16610d06610511565b73ffffffffffffffffffffffffffffffffffffffff1614610d5c576040517f08c379a0000000000000000000000000000000000000000000000000000000008152600401610d53906111db565b60405180910390fd5b600073ffffffffffffffffffffffffffffffffffffffff168173ffffffffffffffffffffffffffffffffffffffff1603610dcb576040517f08c379a0000000000000000000000000000000000000000000000000000000008152600401610dc2906113f4565b60405180910390fd5b610dd481610ddf565b50565b600033905090565b60008060009054906101000a900473ffffffffffffffffffffffffffffffffffffffff169050816000806101000a81548173ffffffffffffffffffffffffffffffffffffffff021916908373ffffffffffffffffffffffffffffffffffffffff1602179055508173ffffffffffffffffffffffffffffffffffffffff168173ffffffffffffffffffffffffffffffffffffffff167f8be0079c531659141344cd1fd0a4f28419497f9722a3daafe3b4186f6b6457e060405160405180910390a35050565b6000819050919050565b610eb681610ea3565b82525050565b6000602082019050610ed16000830184610ead565b92915050565b600080fd5b610ee581610ea3565b8114610ef057600080fd5b50565b600081359050610f0281610edc565b92915050565b600060208284031215610f1e57610f1d610ed7565b5b6000610f2c84828501610ef3565b91505092915050565b6000604082019050610f4a6000830185610ead565b610f576020830184610ead565b9392505050565b600073ffffffffffffffffffffffffffffffffffffffff82169050919050565b6000610f8982610f5e565b9050919050565b610f9981610f7e565b82525050565b6000602082019050610fb46000830184610f90565b92915050565b60008060408385031215610fd157610fd0610ed7565b5b6000610fdf85828601610ef3565b9250506020610ff085828601610ef3565b9150509250929050565b61100381610f7e565b811461100e57600080fd5b50565b60008135905061102081610ffa565b92915050565b60006020828403121561103c5761103b610ed7565b5b600061104a84828501611011565b91505092915050565b7f4e487b7100000000000000000000000000000000000000000000000000000000600052601160045260246000fd5b600061108d82610ea3565b915061109883610ea3565b9250817fffffffffffffffffffffffffffffffffffffffffffffffffffffffffffffffff04831182151516156110d1576110d0611053565b5b828202905092915050565b7f4e487b7100000000000000000000000000000000000000000000000000000000600052601260045260246000fd5b600061111682610ea3565b915061112183610ea3565b925082611131576111306110dc565b5b828204905092915050565b60008151905061114b81610edc565b92915050565b60006020828403121561116757611166610ed7565b5b60006111758482850161113c565b91505092915050565b600082825260208201905092915050565b7f4f776e61626c653a2063616c6c6572206973206e6f7420746865206f776e6572600082015250565b60006111c560208361117e565b91506111d08261118f565b602082019050919050565b600060208201905081810360008301526111f4816111b8565b9050919050565b60006040820190506112106000830185610f90565b61121d6020830184610ead565b9392505050565b60008115159050919050565b61123981611224565b811461124457600080fd5b50565b60008151905061125681611230565b92915050565b60006020828403121561127257611271610ed7565b5b600061128084828501611247565b91505092915050565b7f57726f6e6720726174696f000000000000000000000000000000000000000000600082015250565b60006112bf600b8361117e565b91506112ca82611289565b602082019050919050565b600060208201905081810360008301526112ee816112b2565b9050919050565b600060608201905061130a6000830186610f90565b6113176020830185610f90565b6113246040830184610ead565b949350505050565b600061133782610ea3565b915061134283610ea3565b9250827fffffffffffffffffffffffffffffffffffffffffffffffffffffffffffffffff0382111561137757611376611053565b5b828201905092915050565b7f4f776e61626c653a206e6577206f776e657220697320746865207a65726f206160008201527f6464726573730000000000000000000000000000000000000000000000000000602082015250565b60006113de60268361117e565b91506113e982611382565b604082019050919050565b6000602082019050818103600083015261140d816113d1565b905091905056fea2646970667358221220a3ead6580a332826307b7eb0e990c18380b14bb28f06676ecfa9b9606b056de764736f6c634300080d0033",
  "linkReferences": {},
  "deployedLinkReferences": {}
}