{
  "_format": "hh-sol-artifact-1",
  "contractName": "QuichswapStacking",
  "sourceName": "contracts/QuichswapStacking.sol",
  "abi": [
    {
      "inputs": [
        {
          "internalType": "contract QuichesToken",
          "name": "_token",
          "type": "address"
        },
        {
          "internalType": "contract ERC20",
          "name": "_stackableToken",
          "type": "address"
        }
      ],
      "stateMutability": "nonpayable",
      "type": "constructor"
    },
    {
      "anonymous": false,
      "inputs": [
        {
          "indexed": true,
          "internalType": "address",
          "name": "owner",
          "type": "address"
        },
        {
          "indexed": false,
          "internalType": "uint256",
          "name": "amountClaimedTokens",
          "type": "uint256"
        },
        {
          "indexed": false,
          "internalType": "uint256",
          "name": "timestamp",
          "type": "uint256"
        }
      ],
      "name": "Claimed",
      "type": "event"
    },
    {
      "anonymous": false,
      "inputs": [
        {
          "indexed": true,
          "internalType": "address",
          "name": "previousOwner",
          "type": "address"
        },
        {
          "indexed": true,
          "internalType": "address",
          "name": "newOwner",
          "type": "address"
        }
      ],
      "name": "OwnershipTransferred",
      "type": "event"
    },
    {
      "anonymous": false,
      "inputs": [
        {
          "indexed": true,
          "internalType": "address",
          "name": "owner",
          "type": "address"
        },
        {
          "indexed": false,
          "internalType": "uint256",
          "name": "amountStackedTokens",
          "type": "uint256"
        },
        {
          "indexed": false,
          "internalType": "uint256",
          "name": "timestamp",
          "type": "uint256"
        }
      ],
      "name": "Stacked",
      "type": "event"
    },
    {
      "anonymous": false,
      "inputs": [
        {
          "indexed": true,
          "internalType": "address",
          "name": "owner",
          "type": "address"
        },
        {
          "indexed": false,
          "internalType": "uint256",
          "name": "amountStackedTokens",
          "type": "uint256"
        },
        {
          "indexed": false,
          "internalType": "uint256",
          "name": "timestamp",
          "type": "uint256"
        }
      ],
      "name": "Unstacked",
      "type": "event"
    },
    {
      "inputs": [],
      "name": "claim",
      "outputs": [],
      "stateMutability": "nonpayable",
      "type": "function"
    },
    {
      "inputs": [
        {
          "internalType": "address",
          "name": "owner",
          "type": "address"
        }
      ],
      "name": "getTotalRewardAmount",
      "outputs": [
        {
          "internalType": "uint256",
          "name": "",
          "type": "uint256"
        }
      ],
      "stateMutability": "view",
      "type": "function"
    },
    {
      "inputs": [
        {
          "internalType": "address",
          "name": "owner",
          "type": "address"
        }
      ],
      "name": "getTotalStackedByOwner",
      "outputs": [
        {
          "internalType": "uint256",
          "name": "",
          "type": "uint256"
        }
      ],
      "stateMutability": "view",
      "type": "function"
    },
    {
      "inputs": [],
      "name": "owner",
      "outputs": [
        {
          "internalType": "address",
          "name": "",
          "type": "address"
        }
      ],
      "stateMutability": "view",
      "type": "function"
    },
    {
      "inputs": [],
      "name": "renounceOwnership",
      "outputs": [],
      "stateMutability": "nonpayable",
      "type": "function"
    },
    {
      "inputs": [],
      "name": "rewardsPerHour",
      "outputs": [
        {
          "internalType": "uint256",
          "name": "",
          "type": "uint256"
        }
      ],
      "stateMutability": "view",
      "type": "function"
    },
    {
      "inputs": [
        {
          "internalType": "uint256",
          "name": "amountOfTokens",
          "type": "uint256"
        }
      ],
      "name": "stack",
      "outputs": [],
      "stateMutability": "nonpayable",
      "type": "function"
    },
    {
      "inputs": [
        {
          "internalType": "address",
          "name": "",
          "type": "address"
        }
      ],
      "name": "stackedTokens",
      "outputs": [
        {
          "internalType": "uint256",
          "name": "amount",
          "type": "uint256"
        },
        {
          "internalType": "uint256",
          "name": "stackingStartTime",
          "type": "uint256"
        }
      ],
      "stateMutability": "view",
      "type": "function"
    },
    {
      "inputs": [],
      "name": "totalStacked",
      "outputs": [
        {
          "internalType": "uint256",
          "name": "",
          "type": "uint256"
        }
      ],
      "stateMutability": "view",
      "type": "function"
    },
    {
      "inputs": [
        {
          "internalType": "address",
          "name": "newOwner",
          "type": "address"
        }
      ],
      "name": "transferOwnership",
      "outputs": [],
      "stateMutability": "nonpayable",
      "type": "function"
    },
    {
      "inputs": [
        {
          "internalType": "uint256",
          "name": "amountOfTokens",
          "type": "uint256"
        }
      ],
      "name": "unstack",
      "outputs": [],
      "stateMutability": "nonpayable",
      "type": "function"
    }
  ],
  "bytecode": "0x60806040526000600155600f6003553480156200001b57600080fd5b5060405162001793380380620017938339818101604052810190620000419190620003c9565b6200006162000055620000fc60201b60201c565b6200010460201b60201c565b81600460006101000a81548173ffffffffffffffffffffffffffffffffffffffff021916908373ffffffffffffffffffffffffffffffffffffffff16021790555080600560006101000a81548173ffffffffffffffffffffffffffffffffffffffff021916908373ffffffffffffffffffffffffffffffffffffffff160217905550620000f433620001c860201b60201c565b50506200052b565b600033905090565b60008060009054906101000a900473ffffffffffffffffffffffffffffffffffffffff169050816000806101000a81548173ffffffffffffffffffffffffffffffffffffffff021916908373ffffffffffffffffffffffffffffffffffffffff1602179055508173ffffffffffffffffffffffffffffffffffffffff168173ffffffffffffffffffffffffffffffffffffffff167f8be0079c531659141344cd1fd0a4f28419497f9722a3daafe3b4186f6b6457e060405160405180910390a35050565b620001d8620000fc60201b60201c565b73ffffffffffffffffffffffffffffffffffffffff16620001fe620002dd60201b60201c565b73ffffffffffffffffffffffffffffffffffffffff161462000257576040517f08c379a00000000000000000000000000000000000000000000000000000000081526004016200024e9062000471565b60405180910390fd5b600073ffffffffffffffffffffffffffffffffffffffff168173ffffffffffffffffffffffffffffffffffffffff1603620002c9576040517f08c379a0000000000000000000000000000000000000000000000000000000008152600401620002c09062000509565b60405180910390fd5b620002da816200010460201b60201c565b50565b60008060009054906101000a900473ffffffffffffffffffffffffffffffffffffffff16905090565b600080fd5b600073ffffffffffffffffffffffffffffffffffffffff82169050919050565b600062000338826200030b565b9050919050565b60006200034c826200032b565b9050919050565b6200035e816200033f565b81146200036a57600080fd5b50565b6000815190506200037e8162000353565b92915050565b600062000391826200032b565b9050919050565b620003a38162000384565b8114620003af57600080fd5b50565b600081519050620003c38162000398565b92915050565b60008060408385031215620003e357620003e262000306565b5b6000620003f3858286016200036d565b92505060206200040685828601620003b2565b9150509250929050565b600082825260208201905092915050565b7f4f776e61626c653a2063616c6c6572206973206e6f7420746865206f776e6572600082015250565b60006200045960208362000410565b9150620004668262000421565b602082019050919050565b600060208201905081810360008301526200048c816200044a565b9050919050565b7f4f776e61626c653a206e6577206f776e657220697320746865207a65726f206160008201527f6464726573730000000000000000000000000000000000000000000000000000602082015250565b6000620004f160268362000410565b9150620004fe8262000493565b604082019050919050565b600060208201905081810360008301526200052481620004e2565b9050919050565b611258806200053b6000396000f3fe608060405234801561001057600080fd5b50600436106100a95760003560e01c80638da5cb5b116100715780638da5cb5b1461012c5780638e7271fa1461014a578063a93ecbda14610168578063b91979a814610199578063dc9031c4146101c9578063f2fde38b146101e5576100a9565b8063200061df146100ae57806329eae70d146100ca5780634e71d92d146100e857806353132882146100f2578063715018a614610122575b600080fd5b6100c860048036038101906100c39190610d3a565b610201565b005b6100d2610218565b6040516100df9190610d76565b60405180910390f35b6100f061021e565b005b61010c60048036038101906101079190610def565b610300565b6040516101199190610d76565b60405180910390f35b61012a61034c565b005b6101346103d4565b6040516101419190610e2b565b60405180910390f35b6101526103fd565b60405161015f9190610d76565b60405180910390f35b610182600480360381019061017d9190610def565b610403565b604051610190929190610e46565b60405180910390f35b6101b360048036038101906101ae9190610def565b610427565b6040516101c09190610d76565b60405180910390f35b6101e360048036038101906101de9190610d3a565b610447565b005b6101ff60048036038101906101fa9190610def565b6106cf565b005b61020b33826107c6565b61021533826108c2565b50565b60015481565b6000600260003373ffffffffffffffffffffffffffffffffffffffff1673ffffffffffffffffffffffffffffffffffffffff16815260200190815260200160002060405180604001604052908160008201548152602001600182015481525050905061028e3382600001516107c6565b60405180604001604052808260000151815260200142815250600260003373ffffffffffffffffffffffffffffffffffffffff1673ffffffffffffffffffffffffffffffffffffffff168152602001908152602001600020600082015181600001556020820151816001015590505050565b6000600260008373ffffffffffffffffffffffffffffffffffffffff1673ffffffffffffffffffffffffffffffffffffffff168152602001908152602001600020600001549050919050565b610354610af8565b73ffffffffffffffffffffffffffffffffffffffff166103726103d4565b73ffffffffffffffffffffffffffffffffffffffff16146103c8576040517f08c379a00000000000000000000000000000000000000000000000000000000081526004016103bf90610ecc565b60405180910390fd5b6103d26000610b00565b565b60008060009054906101000a900473ffffffffffffffffffffffffffffffffffffffff16905090565b60035481565b60026020528060005260406000206000915090508060000154908060010154905082565b60008061043383610300565b905061043f8382610bc4565b915050919050565b600560009054906101000a900473ffffffffffffffffffffffffffffffffffffffff1673ffffffffffffffffffffffffffffffffffffffff166323b872dd3330846040518463ffffffff1660e01b81526004016104a693929190610eec565b6020604051808303816000875af11580156104c5573d6000803e3d6000fd5b505050506040513d601f19601f820116820180604052508101906104e99190610f5b565b506000600260003373ffffffffffffffffffffffffffffffffffffffff1673ffffffffffffffffffffffffffffffffffffffff1681526020019081526020016000206001015411156105f75761059c600260003373ffffffffffffffffffffffffffffffffffffffff1673ffffffffffffffffffffffffffffffffffffffff1681526020019081526020016000206040518060400160405290816000820154815260200160018201548152505082610c6b565b600260003373ffffffffffffffffffffffffffffffffffffffff1673ffffffffffffffffffffffffffffffffffffffff1681526020019081526020016000206000820151816000015560208201518160010155905050610663565b604051806040016040528082815260200142815250600260003373ffffffffffffffffffffffffffffffffffffffff1673ffffffffffffffffffffffffffffffffffffffff16815260200190815260200160002060008201518160000155602082015181600101559050505b80600160008282546106759190610fb7565b925050819055503373ffffffffffffffffffffffffffffffffffffffff167f1d69b4311561328cf56f4f72b8b25a4a7f0fbfafa3fc89f046542bb4adf7e12a82426040516106c4929190610e46565b60405180910390a250565b6106d7610af8565b73ffffffffffffffffffffffffffffffffffffffff166106f56103d4565b73ffffffffffffffffffffffffffffffffffffffff161461074b576040517f08c379a000000000000000000000000000000000000000000000000000000000815260040161074290610ecc565b60405180910390fd5b600073ffffffffffffffffffffffffffffffffffffffff168173ffffffffffffffffffffffffffffffffffffffff16036107ba576040517f08c379a00000000000000000000000000000000000000000000000000000000081526004016107b19061107f565b60405180910390fd5b6107c381610b00565b50565b60006107d28383610bc4565b9050600081111561086d57600460009054906101000a900473ffffffffffffffffffffffffffffffffffffffff1673ffffffffffffffffffffffffffffffffffffffff166340c10f1984836040518363ffffffff1660e01b815260040161083a92919061109f565b600060405180830381600087803b15801561085457600080fd5b505af1158015610868573d6000803e3d6000fd5b505050505b8273ffffffffffffffffffffffffffffffffffffffff167f987d620f307ff6b94d58743cb7a7509f24071586a77759b77c2d4e29f75a2f9a82426040516108b5929190610e46565b60405180910390a2505050565b6000600260003373ffffffffffffffffffffffffffffffffffffffff1673ffffffffffffffffffffffffffffffffffffffff168152602001908152602001600020604051806040016040529081600082015481526020016001820154815250509050806000015182111561096b576040517f08c379a000000000000000000000000000000000000000000000000000000000815260040161096290611114565b60405180910390fd5b600560009054906101000a900473ffffffffffffffffffffffffffffffffffffffff1673ffffffffffffffffffffffffffffffffffffffff1663a9059cbb84846040518363ffffffff1660e01b81526004016109c892919061109f565b6020604051808303816000875af11580156109e7573d6000803e3d6000fd5b505050506040513d601f19601f82011682018060405250810190610a0b9190610f5b565b506040518060400160405280838360000151610a279190611134565b81526020018260200151815250600260003373ffffffffffffffffffffffffffffffffffffffff1673ffffffffffffffffffffffffffffffffffffffff16815260200190815260200160002060008201518160000155602082015181600101559050508160016000828254610a9c9190611134565b925050819055503373ffffffffffffffffffffffffffffffffffffffff167f0a8494d201f170710640e59451735bf7bfc0dd338159164945747decf6dd4ee58342604051610aeb929190610e46565b60405180910390a2505050565b600033905090565b60008060009054906101000a900473ffffffffffffffffffffffffffffffffffffffff169050816000806101000a81548173ffffffffffffffffffffffffffffffffffffffff021916908373ffffffffffffffffffffffffffffffffffffffff1602179055508173ffffffffffffffffffffffffffffffffffffffff168173ffffffffffffffffffffffffffffffffffffffff167f8be0079c531659141344cd1fd0a4f28419497f9722a3daafe3b4186f6b6457e060405160405180910390a35050565b600080600260008573ffffffffffffffffffffffffffffffffffffffff1673ffffffffffffffffffffffffffffffffffffffff1681526020019081526020016000206040518060400160405290816000820154815260200160018201548152505090506000429050610e1060035485846020015184610c439190611134565b610c4d9190611168565b610c579190611168565b610c6191906111f1565b9250505092915050565b610c73610ce5565b6000828460000151610c859190610fb7565b90506000818560000151866020015142610c9f9190611134565b610ca99190611168565b610cb391906111f1565b905060008142610cc39190611134565b9050604051806040016040528084815260200182815250935050505092915050565b604051806040016040528060008152602001600081525090565b600080fd5b6000819050919050565b610d1781610d04565b8114610d2257600080fd5b50565b600081359050610d3481610d0e565b92915050565b600060208284031215610d5057610d4f610cff565b5b6000610d5e84828501610d25565b91505092915050565b610d7081610d04565b82525050565b6000602082019050610d8b6000830184610d67565b92915050565b600073ffffffffffffffffffffffffffffffffffffffff82169050919050565b6000610dbc82610d91565b9050919050565b610dcc81610db1565b8114610dd757600080fd5b50565b600081359050610de981610dc3565b92915050565b600060208284031215610e0557610e04610cff565b5b6000610e1384828501610dda565b91505092915050565b610e2581610db1565b82525050565b6000602082019050610e406000830184610e1c565b92915050565b6000604082019050610e5b6000830185610d67565b610e686020830184610d67565b9392505050565b600082825260208201905092915050565b7f4f776e61626c653a2063616c6c6572206973206e6f7420746865206f776e6572600082015250565b6000610eb6602083610e6f565b9150610ec182610e80565b602082019050919050565b60006020820190508181036000830152610ee581610ea9565b9050919050565b6000606082019050610f016000830186610e1c565b610f0e6020830185610e1c565b610f1b6040830184610d67565b949350505050565b60008115159050919050565b610f3881610f23565b8114610f4357600080fd5b50565b600081519050610f5581610f2f565b92915050565b600060208284031215610f7157610f70610cff565b5b6000610f7f84828501610f46565b91505092915050565b7f4e487b7100000000000000000000000000000000000000000000000000000000600052601160045260246000fd5b6000610fc282610d04565b9150610fcd83610d04565b9250827fffffffffffffffffffffffffffffffffffffffffffffffffffffffffffffffff0382111561100257611001610f88565b5b828201905092915050565b7f4f776e61626c653a206e6577206f776e657220697320746865207a65726f206160008201527f6464726573730000000000000000000000000000000000000000000000000000602082015250565b6000611069602683610e6f565b91506110748261100d565b604082019050919050565b600060208201905081810360008301526110988161105c565b9050919050565b60006040820190506110b46000830185610e1c565b6110c16020830184610d67565b9392505050565b7f4e4f500000000000000000000000000000000000000000000000000000000000600082015250565b60006110fe600383610e6f565b9150611109826110c8565b602082019050919050565b6000602082019050818103600083015261112d816110f1565b9050919050565b600061113f82610d04565b915061114a83610d04565b92508282101561115d5761115c610f88565b5b828203905092915050565b600061117382610d04565b915061117e83610d04565b9250817fffffffffffffffffffffffffffffffffffffffffffffffffffffffffffffffff04831182151516156111b7576111b6610f88565b5b828202905092915050565b7f4e487b7100000000000000000000000000000000000000000000000000000000600052601260045260246000fd5b60006111fc82610d04565b915061120783610d04565b925082611217576112166111c2565b5b82820490509291505056fea2646970667358221220a0a716ed2223c654d55d1e700338a0de1ae289fd1aeac7693498103cc7e008b864736f6c634300080d0033",
  "linkReferences": {},
  "deployedLinkReferences": {}
}